:020000040800F2
:1000000060DD00203103000841770008595E0008D8
:1000100001760008D91A000875D200080000000017
:100020000000000000000000000000007102000855
:100030000B1E000800000000CD020008699B0008AC
:100040004B0300084B0300084B0300084B03000858
:100050004B0300084B0300084B0300084B03000848
:100060004B0300084B0300084B0300084B03000838
:100070000D1D00084B0300084B0300084B0300084C
:100080004B0300084B0300084B0300084B03000818
:10009000DD1A00084B0300084B0300083D1E000852
:1000A0004B0300084B0300084B0300084B030008F8
:1000B0004D9D00084B0300084B0300084B0300084C
:1000C0004B0300084B0300084B0300084B030008D8
:1000D0004B0300084B0300084B030008B5A60008BB
:1000E0004B0300084B0300084B0300084B030008B8
:1000F0004B0300084B0300084B0300084B030008A8
:100100004B0300084B0300084B0300084B03000897
:100110004B0300084B0300084B0300084B03000887
:100120004B0300084B0300084B0300084B03000877
:100130004B0300084B0300084B0300084B03000867
:10014000ED1A00084B0300084B030008497700082C
:100150004B0300081D1D00084B030008C5A600083E
:100160004B0300084B0300084B0300084B03000837
:100170004B0300084B0300084B030008000000007D
:100180004B0300084B03000800F002F800F060F891
:100190000AA090E8000C82448344AAF10107DA45E2
:1001A00001D100F055F8AFF2090EBAE80F0013F0D4
:1001B000010F18BFFB1A43F001031847382701004D
:1001C000582701000A444FF0000C10F8013B13F0CF
:1001D000070408BF10F8014B1D1108BF10F8015BA0
:1001E000641E05D010F8016B641E01F8016BF9D193
:1001F00013F0080F1EBF10F8014BAD1C0C1B09D1EA
:100200006D1E58BF01F801CBFAD505E014F8016B5B
:1002100001F8016B6D1EF9D59142D6D370470000ED
:100220000023002400250026103A28BF78C1FBD8FF
:10023000520728BF30C148BF0B6070471FB511F08F
:100240000FFB9DE8030000F015FF1FBD10B510BDAA
:1002500000F0DCFF1146FFF7F1FF0EF021FF00F088
:10026000FAFF03B4FFF7F2FF03BC01F031F800001E
:100270002C4B19680868B0E8F04F80F30988BFF389
:100280006F8F4FF0000080F311887047000000006E
:1002900008480068006880F308884FF0000080F389
:1002A000148862B661B6BFF34F8FBFF36F8F00DF64
:1002B00000BF00BF08ED00E0DFF80C00016841F46A
:1002C00070010160704700BF88ED00E0EFF3098026
:1002D000BFF36F8F134B1A681EF0100F08BF20ED8D
:1002E000108A20E9F04F106009B44FF0500080F3FD
:1002F0001188BFF34F8FBFF36F8F0FF0B1FC4FF03A
:10030000000080F3118809BC19680868B0E8F04F54
:100310001EF0100F08BFB0EC108A80F30988BFF3FD
:100320006F8F7047B0040020EFF305807047000026
:100330000948804709480047FEE7FEE7FEE7FEE779
:10034000FEE7FEE7FEE7FEE7FEE7FEE704480549B5
:10035000054A064B70470000559C000889010008BB
:10036000609D002060DD002060BD002060BD002099
:10037000B5EEC00AF1EE10FA07D2DFED1E0AB4EEB8
:10038000E00AF1EE10FAA8BF7047DFED1B0AB5EEE8
:10039000C00A60EE200ABDEEE01A11EE100AF1EE7E
:1003A00010FA38BF401E00EE100A1549F7EE001A89
:1003B000B8EEC00A30EEC00ADFED100A60EE200A87
:1003C000BCEEE00A10EE100AC0F3080000EE100ABE
:1003D00001EB8000B8EE400A90ED011A70EEC00A01
:1003E00090ED000A71EEE01A21EE800A00EE810A1B
:1003F00070470000CD024CB483F9223E0000004457
:10040000901E010870B405880E884468D1F804C0B5
:100410005368B54208D140884988884201BF118895
:100420008D425188884203D070BC6FF00200704743
:1004300005FB00F1880827D094ED001ADCED000AD6
:1004400094ED010ADCED011A31EE201AD4ED020A16
:1004500070EE211A9CED020A83ED001AC3ED011A19
:1004600094ED031ADCED031A30EE800A401E71EEA3
:10047000210A83ED020A04F11004C3ED030A03F11B
:1004800010030CF1100CD7D111F0030030D0B0F1F3
:10049000004F30D200282BDD211F1B1FACF10402BE
:1004A00010F0010F0AD091ED010AD2ED010A091DE9
:1004B000121D30EE200A83ED010A1B1D400817D0E3
:1004C00091ED010AD2ED010A401E30EE200A83EDC3
:1004D000010A91ED020AD2ED020A01F1080102F1CE
:1004E000080230EE200A83ED020A03F10803E7D187
:1004F00070BC00207047B4EC010A401EFCEC010AFD
:1005000030EE200AA3EC010AF5D1F1E70180428028
:10051000436070472DE9F34F84B004984068009021
:10052000486801900498B0F800E04588DFEDFE0AC5
:1005300000200290B0EE600AAE4506D108884988D6
:10054000884204BF7146864504D06FF0020006B0B1
:10055000BDE8F08F01985FEA010C18BFB7EE001AF2
:100560003DD000BFBEEB0C0117D0B1F1004F80F0C1
:100570001F82002911DD021F11F0010F1CBFC2ED07
:10058000010A121D4B1006D0C2ED010AC2ED020A8B
:1005900008325B1EF8D100EB8100BCF10102A0EC37
:1005A000011A19D0B2F1004F80F00882002A13DD41
:1005B000031F12F0010F1CBFC3ED010A1B1D5110D8
:1005C00008D000BFC3ED010AC3ED020A491E03F1C2
:1005D0000803F7D100EB8200BCF1010CC2D14FF04F
:1005E00000080395002D14BFB0EE602A002000F033
:1005F000BF8100BF009908FB05F001EB800B01995A
:10060000DBED002A01EB80000346F0EE421AC645FE
:1006100052D9AEEB0802ABEB850112F0010F17D0F7
:1006200001EB850191ED000AB5EEC00AF1EE10FA7A
:1006300007DDB4EEE10AF1EE10FA09DDF0EE401A42
:1006400006E0B1EE400AF4EEC01AF1EE10FAF5D36E
:10065000521031D001EB850C9CED000AB5EEC00ABA
:10066000F1EE10FA05DDB4EEE10AF1EE10FA09DD63
:1006700006E0B1EE400AF4EEC01AF1EE10FA01D233
:10068000F0EE401A01EBC50191ED000AB5EEC00A8B
:10069000F1EE10FA05DDB4EEE10AF1EE10FA09DD33
:1006A00006E0B1EE400AF4EEC01AF1EE10FA01D203
:1006B000F0EE401A521ECDD1F5EEC01AF1EE10FA4E
:1006C00000F07381F5EEC02A0126F1EE10FA0099D0
:1006D000D4BFB1EE620AB0EE620AB4EE610AF1EE86
:1006E00010FA1CBFAEEB0802B2F1010C47D005FBBB
:1006F00008F201EB820292ED001A00BFB0EE410A4F
:1007000005FB06F4B5EEC00A00EB8404F1EE10FA26
:10071000CCBFF0EE400AF1EE400AF4EE610AF1EED1
:1007200010FA28D1B5EB080C11D0BCF1004F7DD2E6
:10073000BCF1000F0BDD00BF92ED000AD1ED000A05
:10074000BCF1010CE2EC010AA1EC010AF4D1290090
:100750000ED0B1F1004F6AD2002909DD94ED000AF4
:10076000D0ED000A491EE4EC010AA0EC010AF5D123
:10077000012002900BE0761CBCF1010CBED1029866
:10078000012804D0F5EEC02AF1EE10FA7ED09BEDE0
:10079000000AB5EB08009A465946064622D0B0F149
:1007A000004F74D200281DDD091F10F0010F06D084
:1007B000F0EE400A80EEA01A81ED011A091D4010EA
:1007C00010D000BFD1ED010A401E80EE801A81EDED
:1007D000011A91ED021AC1EE000AC1ED020A01F1FF
:1007E0000801EFD1280026D0B0F1004F7ED20028BA
:1007F00021DDAAF1040110F0010F06D0D1ED010AAC
:1008000080EE801A81ED011A091D401013D000BF3F
:10081000D1ED010A401E80EE801A81ED011AD1ED62
:10082000020A80EE801A81ED021A01E0CBE0D6E0E8
:1008300001F10801ECD1DDE900124FF000095FEA97
:100840000E0773D0C14504BF01EB860102EB8502A0
:1008500074D091ED000ADC465046331E35D01C465C
:10086000B6F1004F7ED2002C2FDD0B1FABF1040C34
:1008700016F0010F0FD0F0EE400ADCED011AB0EED9
:10088000601A00EEE11A83ED011A01E08DE0B1E09B
:100890001B1D0CF1040C741015D000BFD3ED010A20
:1008A0009CED011A40EE410AC3ED010AD3ED020AA4
:1008B0009CED021A0CF1080C40EE410AC3ED020A4D
:1008C0000833641EEAD101EB86012B0036D0B3F168
:1008D000004F72D2002B31DDA2F1040CAAF104000A
:1008E00013F0010F0CD0DCED010A00E08BE090ED7D
:1008F000011A001D40EE410ACCED010A0CF1040C76
:100900005C1019D0DCED010A90ED011A40EE410AAD
:10091000CCED010ADCED020A90ED021A083040EE3F
:10092000410ACCED020A03E0000000000DE005E002
:10093000641E0CF1080CE5D102EB830201EB880187
:100940007F1E09F101097FF47DAF009808F10108CD
:10095000001D00900398401E03907FF44BAE029957
:10096000012900E058E004BF06B0BDE8F08F00BFE9
:10097000B5EEC00AF1EE10FA7FF4E9AD04990EFB72
:1009800005F3002B4A684FF000010BD902EB810CF4
:100990009CED000AB5EEC00AF1EE10FA02D1491C36
:1009A0008B42F3D88B427FF4D2AD6FF00400CEE5DA
:1009B000E0EC010A491EFBD1EFE538E0E0EC010A6A
:1009C000521EFBD108E692ED000AD1ED000ABCF1FF
:1009D000010CE2EC010AA1EC010AF4D1B7E694EDB6
:1009E000000AD0ED000A491EE4EC010AA0EC010A5D
:1009F000F5D1BDE6D1ED000A401E80EE801AA1ECD3
:100A0000011AF7D1EEE6D3ED000A401E80EE801AFF
:100A1000A3EC011AF7D10EE7BCEC011AD1ED000AE4
:100A20005B1E40EE410AE1EC010AF5D14DE7B0EC66
:100A3000011AD2ED000A5B1E40EE410AE2EC010A07
:100A4000F5D17BE72DE9F04F82B0466853680193FA
:100A5000058847884B88002000900888874201BF9E
:100A6000B2F800C06545528893421EBF6FF0020085
:100A700002B0BDE8F08F9FED412A4FEA970EC7F311
:100A8000400B00BFDDE9000202EB800A4A6898468D
:100A90004FF00009B0EE420AB4465FEA0E0025D0DE
:100AA00092ED001ADCED001A02EB8302DCED010A84
:100AB00001EE810A92ED001A02EB8302401ED2ED94
:100AC000001A02EB830200EE810A9CED021ADCEDB3
:100AD000030A00040CF1100C000C01EE210A92ED47
:100AE000001A02EB830200EE810AD9D117F003004D
:100AF00026D0ACF10404A2EB830210F0010F08D061
:100B000002EB8302D4ED010A92ED001A241D00EEDF
:100B1000810A5FEA0B0013D002EB830CD4ED010ACB
:100B20009CED001A02EBC302401E00EE810AD4EDD8
:100B3000020A92ED001A04F1080400EE810AEBD1DA
:100B400009F10100AAEC010A1FFA80F9486800EBDC
:100B50008902A8F101001FFA80F8B8F1000F99D1BD
:100B6000009806EB8706184480B20090681E0504C2
:100B70002D0C87D102B00020BDE8F08F00000000EE
:100B800070B405880E884468D1F804C05368B54233
:100B900008D140884988884201BF11888D42518818
:100BA000884203D070BC6FF00200704705FB00F173
:100BB000880827D094ED001ADCED000A94ED010AB4
:100BC000DCED011A31EE601AD4ED020A70EE611A02
:100BD0009CED020A83ED001AC3ED011A94ED031A8D
:100BE000DCED031A30EEC00A401E71EE610A83ED9F
:100BF000020A04F11004C3ED030A03F110030CF11F
:100C0000100CD7D111F0030030D0B0F1004F30D22A
:100C100000282BDD211F1B1FACF1040210F0010F77
:100C20000AD091ED010AD2ED010A091D121D30EE24
:100C3000600A83ED010A1B1D400817D091ED010ADF
:100C4000D2ED010A401E30EE600A83ED010A91EDFB
:100C5000020AD2ED020A01F1080102F1080230EEA7
:100C6000600A83ED020A03F10803E7D170BC00209B
:100C70007047B4EC010A401EFCEC010A30EE600A39
:100C8000A3EC010AF5D1F1E72DE9F04F028847689E
:100C9000B0F802804888D1F8049082B04FF0000A82
:100CA0001646824207BF098888456FF0020002B0ED
:100CB00018BFBDE8F08F4FEA980B02EB420001909D
:100CC000C8F34000CDF8000009EB8A01BBF1000F2A
:100CD00033D0019801EB820C01EB80043B46E646E1
:100CE00001EBC2054FEA0B0093ED000A401E81EDB7
:100CF000000A93ED010A01EB02118CED000A93ED5D
:100D0000020A0CEB021C85ED000A93ED030A05EBC9
:100D1000021584ED000A04EB021403F11003E3D181
:100D20000EEB820000EB820000EB8201ABF10100D0
:100D3000504307EB0B1701EB001118F0030C21D007
:100D40003B1FA1EB82011CF0010F06D093ED010ABD
:100D500001EB82011B1D81ED000A009880B100BFEC
:100D600093ED010A01EB820401EBC20184ED000A5C
:100D700093ED020A401E81ED000A03F10803EFD152
:100D800007EB8C070AF101001FFA80FA701E0604B7
:100D9000360C99D102B00020BDE8F08F70B5064640
:100DA00000F04CF9056806F10B0020F00704B4428E
:100DB0009CBF002070BD2B466A68BAB11068A04283
:100DC00010D304F1080188423CBF5068586007D333
:100DD0005168101941601168091B01605860146066
:100DE000101D70BD13465268002AE7D121462846DF
:100DF00000F02CF90028DED170BD53EA020C00F09F
:100E000069802DE9F04B4FF00006002B1FBFB3FAAD
:100E100083F503FA05F424FA05F65E4012BF164383
:100E2000B2FA82F502FA05F4C5F120051EBF22FAD6
:100E300005FC44EA0C04203556EA044C4FEA1444FD
:100E400018BF641C4FF000084FF00009904271EB8E
:100E5000030C39D3002919BFB1FA81F701FA07F65B
:100E6000B0FA80F700FA07F6C7F120071EBF20FA94
:100E700007FC46EA0C062037B6FBF4FCA7EB050797
:100E8000103F07F01F0BCBF120060CFA0BFB2CFADE
:100E900006F644BFB3460026202FA4BF5E464FF09F
:100EA000000B5BEA060C08BF4FF0010B19EB0B09B6
:100EB000ABFB027C48EB0608C01B06FB02CC0BFB1D
:100EC00003CC71EB0C01C1E70B4602464146484694
:100ED000BDE8F08B13B54FF000004FF00001AFF309
:100EE0000080BDE81C407047032A40F2308010F0BB
:100EF000030C00F0158011F8013BBCF1020F6244B5
:100F000098BF11F801CB00F8013B38BF11F8013B45
:100F1000A2F1040298BF00F801CB38BF00F8013BF2
:100F200011F0030300F02580083AC0F0088051F862
:100F3000043B083A51F804CBA0E80810F5E7121D6D
:100F40005CBF51F8043B40F8043BAFF30080D2078C
:100F500024BF11F8013B11F801CB48BF11F8012B58
:100F600024BF00F8013B00F801CB48BF00F8012B7B
:100F7000704710B5203AC0F00B80B1E81850203A05
:100F8000A0E81850B1E81850A0E81850BFF4F5AF29
:100F90005FEA027C24BFB1E81850A0E8185044BFB3
:100FA00018C918C0BDE810405FEA827C24BF51F820
:100FB000043B40F8043B08BF7047D20728BF31F814
:100FC000023B48BF11F8012B28BF20F8023B48BF65
:100FD00000F8012B704702F0FF0343EA032242EAC4
:100FE000024200F0B1B84FF0000200B5134694463B
:100FF0009646203922BFA0E80C50A0E80C50B1F171
:101000002001BFF4F7AF090728BFA0E80C5048BF84
:101010000CC05DF804EB890028BF40F8042B08BF22
:10102000704748BF20F8022B11F0804F18BF00F81E
:10103000012B7047704770477047000000487047A9
:10104000049D0020704770477047704738B50446CC
:101050000A4600206946AFF30080002808BF38BD6B
:1010600002460099204600F097F8012038BD012083
:1010700000F0C4B8F8B5AFF30080054600200C4678
:10108000102000BF0646A819A0420DD93246694675
:101090000020AFF30080070008BF00F0AFF8009811
:1010A000A04218BF0546C419FFF7C8FF05600746F0
:1010B000F01D20F007004619284600F00AF8B44257
:1010C00008BFF8BDA21B31463868BDE8F84000F003
:1010D00063B800210160C0E901107047102070471B
:1010E00070B50446051FFFF7A9FF0068002C14BF68
:1010F000446870BD002C18BFAC423CBF20466468F9
:10110000F8D301680A18AA4218BF456003D12A68BB
:1011100005461144016028684119A1421CBF6C605A
:1011200070BD6168696021680844286070BD10B5B1
:1011300000F02EF8006810BD10B5044600F028F845
:10114000046010BD4FF000020429C0F0128010F0BE
:10115000030C3FF44AAFCCF1040CBCF1020F18BFF2
:1011600000F8012BA8BF20F8022BA1EB0C01FFF720
:101170003CBF5FEAC17C24BF00F8012B00F8012BC3
:1011800048BF00F8012B704700487047FC9C0020C6
:1011900000487047FC9C0020034640688C460028AD
:1011A00018BF88423CBF03464068F8D3186818440B
:1011B000884207D00CF1030020F00700001D411AFF
:1011C000521A0146081D0A60FFF78ABF1FB584B096
:1011D00000200A9C06AB04AA02A90094AFF3008089
:1011E00018B1DDE9020108B010BD0348204000F04D
:1011F00040F800200146F6E70000207C10B500F022
:101200003FF8BDE8104000F02FB870477546FFF773
:10121000BBFFAE4605006946534620F007008546F1
:1012200018B020B5FFF792F8BDE820404FF0000657
:101230004FF000074FF000084FF0000B21F00701BE
:10124000AC46ACE8C009ACE8C009ACE8C009ACE801
:10125000C0098D46704710B50446AFF300802046A4
:10126000BDE81040FEF7FDBF002801D000F030B807
:10127000704710B500F04CF8BDE81040FFF7F4BF20
:1012800010B5012805D0002103A000F027F80120A7
:1012900010BD09A1F8E7000053494752544D454D90
:1012A0003A204F7574206F662068656170206D6507
:1012B0006D6F7279000000003A2048656170206D02
:1012C000656D6F727920636F7272757074656400FA
:1012D00001491820ABBEFEE72600020070B50546A6
:1012E0000C460A2000E06D1C00F068F835B1287843
:1012F0000028F8D102E0641C00F060F814B12078F6
:101300000028F8D1BDE870400A2000F057B800006E
:1013100010B5022803D0410103D50DA112E0002031
:1013200010BD010101D50FA10CE0C10001D511A133
:1013300008E0810001D512A104E0400001D513A10D
:1013400000E0002115A0FFF7C9FF012010BD00003B
:10135000496E76616C6964204F7065726174696F63
:101360006E000000446976696465204279205A6500
:10137000726F00004F766572666C6F770000000038
:10138000556E646572666C6F77000000496E657813
:1013900061637420526573756C740000534947464D
:1013A00050453A2041726974686D657469632065BF
:1013B0007863657074696F6E3A20000008B56946FD
:1013C0008DF800000320ABBE08BD000010B501225F
:1013D0001021024802F0D6F810BD000000000240C3
:1013E00010B500221021024802F0CCF810BD000018
:1013F0000000024070B50025FFF7F2FF802000F0EA
:10140000BDFA552000F0BAFA552000F0B7FA0546AB
:10141000FFF7DCFF962000F005FDFFF7E1FF8020DD
:1014200000F0ACFA552000F0A9FA552000F0A6FA19
:101430000546FFF7CBFF962000F0F4FCFFF7D0FF46
:10144000B6217E2000F0EAFAFFF7C0FF502000F03E
:10145000DDFCFFF7C5FF802000F090FA552000F07A
:101460008DFA552000F08AFA0546FFF7AFFF962067
:1014700000F0D8FCFFF7B4FF802000F07FFA552081
:1014800000F07CFA552000F079FA0546FFF79EFF40
:10149000962000F0C7FC1E2D01D0FF2070BD002457
:1014A00034E0FFF79DFF04EB44021A4B1A445178D5
:1014B00004EB4402985C00F0B1FAFFF787FF962036
:1014C00000F0B0FCFFF78CFF04EB4401114A515CC3
:1014D00041F0800000F052FA552000F04FFA5520FC
:1014E00000F04CFA0546FFF771FF962000F09AFCD9
:1014F00004EB4400074908444078A84204D004EBB8
:10150000440008448078C9E7601CC4B2062CC8DBDC
:101510000020C3E7F002002010B501221146024866
:1015200002F030F810BD00000004024010B50022A7
:101530000121024802F026F810BD0000000402401C
:1015400038B500200090FFF7F1FF6946002000F059
:1015500008FAFFF7E1FF962000F064FCFFF7E6FFD2
:101560006946002000F0FDF9FFF7D6FF962000F055
:1015700059FCFFF7DBFFB621142000F04FFAFFF70C
:10158000CBFF502000F042FCFFF7D0FF694600205F
:1015900000F0E7F9FFF7C0FF962000F043FCFFF7EB
:1015A000C5FF6946002000F0DCF9FFF7B5FF962083
:1015B00000F038FC9DF800000F2801D0FF2038BD56
:1015C00000242FE0FFF7B2FF04EB4402174B1A444C
:1015D000517804EB4402985C00F020FAFFF79CFF7E
:1015E000962000F01FFCFFF7A1FF04EB44010F4A17
:1015F000505C694600F0B5F9FFF78EFF962000F0C9
:1016000011FC04EB44000949084440789DF800109F
:10161000884205D004EB4400044908448078CEE7B2
:10162000601CC4B2062CCDDB0020C8E702030020FA
:101630001CB50446002000900190FFF7D1FE9220D7
:1016400000F09CF906226946122000F077F9FFF7B6
:10165000BDFE9DF800009DF8011040EA012000B297
:1016600020849DF802009DF8031040EA012001B299
:1016700061849DF804009DF8051040EA012001B244
:10168000A184B4F9200000EE100AB8EEC00A504858
:10169000D0ED000A20EE200A84ED010AB4F9220000
:1016A00000EE100AB8EEC00A4948D0ED000A20EE5C
:1016B000200A84ED020AB4F9240000EE100AB8EE04
:1016C000C00A4348D0ED000A20EE200A84ED030A48
:1016D000FFF786FEA22000F051F90222694622207F
:1016E00000F02CF9FFF772FE9DF80000C0009DF895
:1016F000011040EA6111A185B4F92C00B0F5806FAA
:1017000004DBA08DA0F5006001B2A185B4F92C0026
:1017100000EE100AF8EEC00AB4EE001AB3EE070AA3
:1017200000EE810A84ED070AFFF700FF08226946F0
:10173000002000F003F9FFF7EFFE9DF800000F28EE
:1017400017D19DF802009DF8031040EA012001B274
:10175000E1849DF804009DF8051040EA012001B2E3
:1017600021859DF806009DF8071040EA012001B28E
:10177000618594ED0C0AB4F9260000EE900AF8EEAB
:10178000E00A144890ED001A11EE200A84ED040AD4
:1017900094ED0D0AB4F9280000EE900AF8EEE00A84
:1017A0000C4890ED001A11EE200A84ED050A94ED24
:1017B0000E0AB4F92A0000EE900AF8EEE00A054895
:1017C00090ED001A11EE200A84ED060A1CBD0000FF
:1017D000E8020020EC02002010B5002400BFFFF753
:1017E00009FE0443FFF7ACFE0443022000F00EFBA9
:1017F000002CF4D1014800F003F810BDC00B00200C
:101800007CB5044600200090019000257AE0FFF7A7
:10181000E7FD922000F0B2F806226946122000F09F
:101820008DF8FFF7D3FD9DF80100000200B29DF88E
:101830000010084320849DF80300000200B29DF8C8
:101840000210084360849DF80500000200B29DF874
:1018500004100843A084FFF769FE082269460020AF
:1018600000F06CF8FFF758FE9DF800000F2844D1F7
:101870009DF80300000200B29DF802100843E084C6
:101880009DF80500000200B29DF804100843208571
:101890009DF80700000200B29DF80610084360851D
:1018A00094ED0C0AB4F9260000EE900AF8EEE00A76
:1018B0001E4890ED001A01EE200A84ED0C0A94ED0A
:1018C0000D0AB4F9280000EE900AF8EEE00A174875
:1018D00090ED001A01EE200A84ED0D0A94ED0E0A37
:1018E000B4F92A0000EE900AF8EEE00A0F4890EDF5
:1018F000001A01EE200A84ED0E0A012000F086FA9B
:10190000681C85B241F28830854280DB9FED080A71
:1019100084ED0C0A9FED070A84ED0D0A9FED060A7F
:1019200084ED0E0A012020707CBD0000EC02002036
:10193000CA9BDCBAA0455ABB445E8FBA70B5064656
:101940000C46154646F0800000F018F806E05520D9
:1019500000F014F82070641C681EC5B2002DF6D18A
:1019600070BD70B504460D4644F0800000F006F8E6
:10197000552000F003F8287070BD000001B582B05A
:10198000002001904FF47A70012301AA02A900906F
:10199000024803F087FA9DF804000EBD8C1D00205C
:1019A00010B52DED028BB0EE408AF0EE480A9FEDA7
:1019B000170A17480DF024FA00BF154890ED0A0ADF
:1019C000DFED140AB4EEE00AF1EE10FA04DD9FED4B
:1019D000110A80ED0A0A0BE00D4890ED0A0AB5EEF7
:1019E000C00AF1EE10FA03D29FED0B0A80ED0A0A4D
:1019F00000BF074991ED0A0ABCEEC00A10EE101AAA
:101A000088B204F02BFABDEC028B10BD000020421E
:101A1000500600200000FA440000000070B50546A2
:101A20000C462846FFF7AAFF2046FFF7A7FF70BD28
:101A300000B58BB0282101A8FFF7D5FA0120099045
:101A40000020079001200890002001900290039050
:101A50000490069005900A9001A9104800F044FEF9
:101A600008B100F0F0F90D4801F037FA02210B48F7
:101A700000F07AFD0E2006900A9001A9084800F0B7
:101A800033FE08B100F0DFF9054801F026FA022123
:101A9000034800F069FD0BB000BD00003C1D0020B4
:101AA000641D002008B52420009005480068011D31
:101AB000044BA3F12402024808F00CFE08BD00000C
:101AC000741E0020C40C002010B50021014803F052
:101AD00079FE10BD2C1E002000BFFEE710B50248A5
:101AE00000F052FF10BD00003C1D002010B5024860
:101AF00000F04AFF10BD0000641D00200346042BC7
:101B000015D007DC7BB1012B0ED0022B0DD0032B9F
:101B100012D10BE0202B0BD0212B0AD0222B09D085
:101B2000232B09D107E008E007E006E005E004E028
:101B300003E002E001E000E000BF00BF00207047CA
:101B40000020704710B500220449054809F09DF8AF
:101B50000449034809F08AF8002010BDE02C002059
:101B600004200020E024002070B504460D461848EB
:101B70000068401C1649086001F00AFD154908601C
:101B80000846006814490968401A14490860084664
:101B90000068192803D901201149087006E00F4890
:101BA0000068142802D200200D49087001F0F0FCF2
:101BB000094908602946204605F024FD21460948C8
:101BC00009F054F8074809F01DF8002070BD000026
:101BD0008C0400209004002094040020980400202D
:101BE0009C0400200420002010B503460C46002170
:101BF000084610BD2DE9F04104460D4600260A486E
:101C0000D0F8BC72D7F8140210B10120BDE8F08101
:101C10002A462146044809F038F8034809F0E8F854
:101C200006463046F2E7000004200020017E5029DD
:101C30000ADD818B491C8183818BC82906DD022244
:101C400082770021818301E00021818370470000B9
:101C500070B506460D4614463168A068814200D032
:101C600070BDA97921766878297840EA012001B20F
:101C70002182E878A97840EA012001B2E1816879FF
:101C8000297940EA012001B2A1812046FFF7CEFF69
:101C9000207820B101280CD002282CD121E04FF46B
:101CA0000051B7EE000A201D0DF038F884ED050A4A
:101CB00022E04FF400519FED120A201D0DF02EF886
:101CC00084ED050A3168D4F88800814208D14FF4C8
:101CD00000519FED0C0A201D0DF020F884ED050A3F
:101CE0000AE04FF400519FED080A201D0DF016F890
:101CF00084ED050A00E000BF00BF00BFB0E70000B0
:101D00002CA0994100004C420000104210B502483E
:101D100001F084F910BD0000FC1E002010B502483F
:101D200001F07CF910BD00005C1F0020014608781E
:101D300010381823B0FBF3F20848805CC865032A0A
:101D400005D908686FF30900001D886503E008687D
:101D50006FF309008865886D70470000701E0108E8
:101D6000014600208A6A8B69CBB932B1012A0DD0B5
:101D7000022A03D0032A10D10EE000BFCB6A03F081
:101D80008073B3F1807F00D1012007E0CB6AB3F10B
:101D9000C07F00D1012001E000E000BF34E08B698A
:101DA000B3F5005F1AD132B1012A07D0022A03D05D
:101DB000032A11D10AE000BF01200EE0CB6A03F034
:101DC0008073B3F1807F00D1012006E0CB6AB3F1CC
:101DD000C07F00D1012000E000BF15E032B1012A30
:101DE00005D0022A04D0032A0CD103E000BF00BFB3
:101DF000012008E0CB6A03F08073B3F1807F00D14B
:101E0000012000E000BF00BF7047704770B5044676
:101E100001F0BEFB054600BF01F0BAFB401BA0422B
:101E2000FAD370BD70B5044604F004F8054600BF4F
:101E300004F000F8401BA042FAD370BD10B520207A
:101E400001F098FA10BD72B600BFFEE7F0EE400A4E
:101E5000F6EE001A60EEA11AB0EE611AB0EE600A5A
:101E600010EE100A0749A1EB600000EE100A21EE07
:101E7000002AF7EE081A42EE401A61EE801AB0EE20
:101E8000610A7047865A375F01794279914203D0DF
:101E900000210180417901717047000070B50A4846
:101EA0000468001D0568001D0668344454B108220A
:101EB0000649204604F0EAF8042204491031284675
:101EC00004F0E4F870BD0000107AFF1F5E040020EB
:101ED00010B50EF06FF87749086077488069096897
:101EE000081A32280CD90020744908707449087007
:101EF00074488169002088477248C1690120884779
:101F00007048807802280BD101206C4908706D4818
:101F10008169012088476B48C16902208847C8E071
:101F2000684880780128FAD16348807A012804D073
:101F300002287DD003287CD13EE05F48C07A01288A
:101F400027D0022802D0032833D110E000205E49B8
:101F50000860012059490870594908705948816939
:101F6000012088475748C1690120884722E00020A6
:101F700055490860012051490870002050490870F7
:101F800050488169002088474E48C1690120884730
:101F900010E000204C490860484908704849087022
:101FA00048488169002088474648C1690120884720
:101FB00000E000BF00BF7BE03F48C07A012827D087
:101FC000022802D0032835D110E000203E490860E5
:101FD00001203A4908703A4908703A48816901205D
:101FE00088473848C1690220884724E000203649E4
:101FF00008600120314908700020314908703148DB
:102000008169002088472F48C1690220884712E073
:1020100000202D490860294908702949087029487D
:102020008169002088472748C1690120884702E06C
:1020300003E03CE000BF00BF3AE01F48C07A01283F
:1020400028D0022802D003282ED111E000201E49FA
:1020500008600120194908700020194908701948C2
:102060008169012088471748C169032088471CE01F
:10207000002015490860012010490870002010490F
:10208000087010488169002088470E48C169022005
:1020900088470AE001200C490860094908700B498B
:1020A00008600649087000E000BF00BF00E000BF04
:1020B00000BF10BD04020020180C00204C010020BD
:1020C000500A002008020020EC010020F801002046
:1020D00010B5044605F0C4FAB1EE400ADFEDC90AB6
:1020E00020EE200A206BB0F9000000EE900AF8EE16
:1020F000E00A9FEDC51A00EEC10AD4ED090A30EEE0
:10210000200A84ED090A05F0D3FAB1EE400ADFEDAA
:10211000BF0A20EE200ABE48007808B9012000E07E
:102120000020216BB1F90210484300EE900AF8EE4E
:10213000E00A9FEDB51A00EE810AD4ED080A30EEF0
:10214000200A84ED080A00BF94ED080ADFEDB10A09
:10215000B4EEE00AF1EE10FA04DD9FEDAE0A84ED74
:10216000080A0CE094ED080AFBEE000AB4EEE00A5F
:10217000F1EE10FA03D2BBEE000A84ED080A00BFAC
:10218000A54890ED021AF0EE410A94ED091AB0EE5E
:10219000410AA2480CF034FE9F4890ED051AF0EE7B
:1021A000410A9E48503890ED1E1AB0EE410A0CF0DC
:1021B00027FEBDEEC00A10EE100A00B2A0869648B7
:1021C00090ED001AF0EE410A94ED081AB0EE410AC3
:1021D0009248A0300CF014FE8F4890ED041AF0EEF7
:1021E000410A8E48503890ED461AB0EE410AA030B0
:1021F0000CF006FEBDEEC00A10EE100A01B2E18638
:1022000004F042FD78B98648007860B9012084491D
:102210000870844890ED000ADFED830A30EE200A52
:1022200080ED000A1BE004F085FE78B97C48007858
:1022300060B901207A4908707A4890ED000ADFED14
:102240007A0A30EE600A80ED000A08E004F072FEBF
:1022500010B904F019FD10B10020714908707348DD
:10226000006801287DD172480078012879D1704832
:1022700090ED030A84ED090A90ED020A84ED080A44
:1022800094ED090A6448D0ED010A30EE600AB0EE20
:10229000C00ADFED680AB4EEE00AF1EE10FA08DDDC
:1022A00094ED090ADFED640A30EE600A84ED090A54
:1022B00017E094ED090A5848D0ED010A30EE600AA3
:1022C000B0EEC00ADFED5D0AB4EEE00AF1EE10FAFE
:1022D00007D294ED090ADFED580A30EE200A84EDAA
:1022E000090A94ED091AF0EE410A4B4890ED011AE3
:1022F000B0EE410A49480CF083FD474890ED051ABD
:10230000F0EE410A4548503890ED1E1AB0EE410AF1
:102310000CF076FDBDEEC00A10EE100A00B2A086E9
:102320003D4890ED001AF0EE410A94ED081A3D4840
:10233000D0ED001A31EE211AB0EE410A3748A03034
:102340000CF05EFD344890ED041AF0EE410A33487B
:10235000503890ED461AB0EE410AA0300CF050FD16
:1023600000E005E0BDEEC00A10EE100A01B2E18601
:10237000207818B90020A0860021E186E08E000AAE
:102380002F4988703620005DC8700A4640F2FF1160
:102390002C480AF005FFA08E000A2949087094F81D
:1023A000340048701A48008A000A88711848007C76
:1023B000C871254890ED000ADFED240A30EE200AAE
:1023C000DFED230A20EE200ABDEEC00A10EE100A4F
:1023D000000A08711C4890ED000ADFED1C0A30EE7F
:1023E000200ADFED1B0A20EE200ABDEEC00A10EE27
:1023F000100A48710A4640F2FF1116480AF0D0FE52
:1024000010BD000017B75139BD3786356F12033A3A
:10241000500A002000003442A80500209408002043
:1024200000020020FC0100208FC2753CEC0100205E
:1024300030020020000034430000B443000034C3E5
:10244000E401002000640040F4010020666682413F
:102450000000C8420068004000F066F800BF2D4848
:10246000007801282ED12C48007808B9012000E01E
:1024700000202A49B1F90010484300EE100AF8EE96
:10248000C00A244890ED090A9FED251A00EEC10A02
:1024900080ED090A2048007808B9012000E00020FA
:1024A0001E49B1F90210484300EE100AF8EEC00AC6
:1024B000184890ED080A9FED1A1A00EE810A80ED87
:1024C000080A18E0174890ED000A124880ED080A43
:1024D000144890ED020A0F4880ED090A114890ED6A
:1024E000000A0C4880ED0A0A0E4890ED020A0948DD
:1024F00080ED0B0A00BF00BF04F0B8FC04F0F0FB55
:10250000FFF7E6FC0348FFF7E3FD01200CF0EDFDCB
:10251000A5E700004C010020500A0020180C002004
:1025200017B75139A805002010B50D4A01210D48F3
:1025300005F074FA0A4A183201210A48503005F0B1
:102540006DFA074A303201210648A03005F066FADC
:10255000034A483201210348F03005F05FFA10BD0C
:10256000840100204408002010B5024692F8203073
:10257000012B01D0022B06D1106840690843146872
:102580006061002010BD506A40F48020506201203C
:10259000F8E7F0B504460D461E4694F82070206812
:1025A0008368A86800B900E000BF012F01D0022FA6
:1025B0007CD103F0806030B903F0006018B903F0FB
:1025C0008050002873D0C3F30161022905D9606AE5
:1025D00040F4000060620120F0BD012088403060BE
:1025E000A86860B9B5F800C0E86840EA4C5C2068AB
:1025F00000F5C07000EB0110C0F800C00FE0D5E995
:1026000001C040EACC00D5F80CC040EA0C00D4F878
:1026100000C00CF5C07C0CEB011CCCF80000D5F818
:1026200010C0206800F5C07000EB0110C0F804C0B5
:10263000287D01280ED1206800F5C07000EB011044
:10264000406840F4807C206800F5C07000EB011009
:10265000C0F804C0D079000692F806C040EA0C40E9
:1026600092F805C040EA0C2C10794CEA000C206866
:1026700000F5C07000EB0110C0F80CC0D078000667
:1026800092F802C040EA0C4092F801C040EA0C20E7
:1026900092F800C040EA0C00D4F800C00CF5C07CF1
:1026A0000CEB011CCCF80800206801E016E00FE0FC
:1026B00000F5C07000EB0110006840F0010C2068CC
:1026C00000F5C07000EB0110C0F800C0002083E7E7
:1026D000606A40F40010606201207DE7606A40F4A7
:1026E00080206062012077E7F0B504460A46216841
:1026F00094F82050012D01D0022D7ED1424901F5E0
:102700000071086840F001000860086820F47C50FF
:1027100008600868566A40EA06200860107D00F0EC
:102720001F06012000FA06F3C8699843C861A1F5A5
:102730000071D069C8B9D1F80C029843C1F80C02F5
:10274000908880B2968940EA064601F51070576974
:1027500040F83760108880B2168940EA064601F5D5
:102760001070576900EBC7004660D069012819D185
:10277000D1F80C021843C1F80C02908880B2168878
:1027800040EA064601F51070576940F837609089B5
:1027900080B2168940EA064601F51070576900EBD1
:1027A000C7004660906928B9D1F804029843C1F87F
:1027B000040204E0D1F804021843C1F804021069CD
:1027C00028B9D1F814029843C1F8140204E0D1F8F2
:1027D00014021843C1F81402106A012804D1D1F878
:1027E0001C021843C1F81C02D1F8000220F00100BD
:1027F000C1F800020020F0BDFFE7606A40F48020CD
:1028000060620120F7E7000000640040704770B587
:10281000044694F82050012D01D0022D7DD151B9EC
:102820002068C06800F0030080B9606A40F40010BE
:102830006062012070BD2068006900F0030028B9C3
:10284000606A40F4001060620120F3E7206800F540
:10285000D87000EB0110006800F0040090609068F0
:1028600040B9206800F5D87000EB01100068400DF9
:10287000106007E0206800F5D87000EB01100068D8
:10288000C0085060206800F5D87000EB01100068A7
:1028900000F00200D060206800F5D87000EB011055
:1028A000406800F00F001061206800F5D87000EB60
:1028B0000110406800F47F40000A9061206800F534
:1028C000D87000EB01104068000C5061206800F5E2
:1028D000D87000EB011080681870206800F5D8707F
:1028E00000EB0110806800F47F40000A58702068F7
:1028F00000F5D87000EB0110806800F47F00000C38
:102900009870206800F5D87000EB01108068000E08
:10291000D870206800F5D87000E02FE000EB0110BF
:10292000C0681871206800F5D87000EB0110C0680D
:1029300000F47F40000A5871206800F5D87000EB61
:102940000110C06800F47F00000C9871206800F549
:10295000D87000EB0110C068000ED87131B9206842
:10296000C06840F020002668F06005E0206800693B
:1029700040F020002668306100205BE7606A40F488
:1029800080206062012055E72DE9F05F04460025B4
:10299000206846692068D0F804902068876820681D
:1029A000D0F80CA02068D0F810B02068D0F81880BB
:1029B00006F00100002855D007F00100C0B1012049
:1029C0002168886007F0020018B1204600F0B5FACF
:1029D0000EE007F0040010B145F4006508E007F0D0
:1029E000080010B145F4805502E0204600F0A4FA3A
:1029F00007F48070C8B14FF480702168886007F4D4
:102A0000007018B1204600F09AFA0EE007F48060DA
:102A100010B145F4005508E007F4006010B145F42A
:102A2000804502E0204600F089FA07F48030C8B102
:102A30004FF480302168886007F4003018B12046D8
:102A400000F07FFA0EE007F4802010B145F4004555
:102A500008E007F4002010B145F4803502E020467C
:102A600000F06EFA06F0080038B10AF0100020B14C
:102A700045F4007510202168C86006F0040040B1DC
:102A80000AF0080028B108202168C860204600F03C
:102A90000DFA06F0020038B12068C06800F00300AB
:102AA00010B1204600F004FA06F0400038B10BF0F7
:102AB000100020B145F4806510202168086106F0FF
:102AC000200040B10BF0080028B1082021680861FF
:102AD000204600F0FFF906F0100038B120680069C8
:102AE00000F0030010B1204600F0F5F906F40030C4
:102AF00040B109F0100028B110202168486020463C
:102B000000F0EAF906F4803040B109F0080028B17D
:102B1000082021684860204600F014FA06F40040BE
:102B200088B309F0040078B306F4807020B108F08F
:102B3000010008B145F0010506F4007020B108F06D
:102B4000020008B145F0020506F4806020B108F0EB
:102B5000040008B145F0040506F40060A0B108F0D7
:102B6000700088B108F07000402817D006DC1028EB
:102B70000BD020280CD0302819D10CE0502810D0D0
:102B8000602814D110E01DE019E045F008050FE0C1
:102B900045F010050CE045F0200509E045F0400542
:102BA00006E045F0800503E045F4807500E000BFD5
:102BB00000BF2068806920F07000216888610420CF
:102BC000216848602DB1606A284360622046FFF7A3
:102BD0001DFEBDE8F09F70B504460CB9012070BD24
:102BE00094F8200010B9204600F0B0F82068006882
:102BF00040F001002168086000F0CAFC05460DE0C5
:102C000000F0C6FC401B0A2808D9606A40F4003076
:102C10006062052084F820000120E0E72068406819
:102C200000F001000028EBD02068006820F00200CE
:102C30002168086000F0ACFC05460DE000F0A8FC3F
:102C4000401B0A2808D9606A40F400306062052001
:102C500084F820000120C2E72068406800F00200EC
:102C60000028EBD1207E012806D12068006840F0C2
:102C700080002168086005E02068006820F080007E
:102C800021680860607E012806D12068006840F055
:102C900040002168086005E02068006820F04000DE
:102CA00021680860A07E012806D12068006840F0F5
:102CB00020002168086005E02068006820F02000FE
:102CC00021680860E07E012806D12068006820F0B5
:102CD00010002168086005E02068006840F01000DE
:102CE00021680860207F012806D12068006840F034
:102CF00008002168086005E02068006820F00800EE
:102D000021680860607F012806D12068006840F0D3
:102D100004002168086005E02068006820F00400D5
:102D200021680860D4E90201084321690843616908
:102D300008436168491E08432168C8610020606239
:102D4000012084F82000002049E7000010B586B07B
:102D50000446142101A8FEF746F94E49206888422E
:102D600041D14D480068401C4B4908600846006846
:102D700001280FD100BF002000904848006840F0B3
:102D80000070464908600846006800F00070009036
:102D900000BF00BF00BF002000904048103800680E
:102DA00040F008003D49103908600846006800F00E
:102DB0000800009000BF00BF032001900220029095
:102DC00000200390032004900920059001A93448B5
:102DD00000F0DEFA00220521142000F09DFC1420F2
:102DE00000F08AFC54E02F492068884250D100BF8F
:102DF000002000902948006840F080602749086062
:102E00000846006800F08060009000BF00BF2248C4
:102E10000068401C204908600846006801280FD15E
:102E200000BF002000901D48006840F000701B4962
:102E300008600846006800F00070009000BF00BF06
:102E400000BF0020009015481038006840F00200D4
:102E50001249103908600846006800F0020000902E
:102E600000BF00BF6020019002200290002003906C
:102E7000032004900920059001A90B4800F088FA6E
:102E800000220521402000F047FC402000F034FCE7
:102E900006B010BD00640040240400204038024009
:102EA000000C02400068004000040240704700002F
:102EB00010B50446054B064A00212046FFF7A7FC43
:102EC000024A034920680AF037F910BDC002002009
:102ED000A40B002070477047704770B5044694F803
:102EE0002000012822D1022084F8200020680068F8
:102EF00020F001002168086000F04AFB05460DE063
:102F000000F046FB401B0A2808D9606A40F40030F4
:102F10006062052084F82000012070BD20684068B0
:102F200000F001000028EBD16062F6E7606A40F42F
:102F3000002060620120F0E77047704770477047DB
:102F400070477047704770B50446A56D00F020FBD0
:102F5000064694F83500022808D08020606500BF3E
:102F6000002084F8340000BF012070BD2068006894
:102F700020F01600216808602068406920F0800079
:102F800021684861206C08B9A06C28B120680068ED
:102F900020F00800216808602068006820F0010027
:102FA0002168086010E000F0F3FA801B05280BD9B7
:102FB00020206065032084F8350000BF002084F8DD
:102FC000340000BF0320D0E72068006800F0010053
:102FD0000028E8D194F85C103F208840A8600120C8
:102FE00084F8350000BF002084F8340000BF00BF23
:102FF000BBE7014691F83500022803D080204865E0
:1030000001207047052081F835000868006820F02D
:1030100001000A6810600020F3E70000F8B50446DC
:10302000002000908C4800684FF41651B0FBF1F777
:10303000A56D2E6894F85C1008208840304098B147
:103040002068006800F0040070B12068006820F07B
:1030500004002168086094F85C1008208840A8608B
:10306000606D40F00100606594F85C1001208840BC
:10307000304068B12068406900F0800040B194F8A9
:103080005C1001208840A860606D40F0020060651F
:1030900094F85C1004208840304068B120680068D3
:1030A00000F0020040B194F85C1004208840A86051
:1030B000606D40F00400606594F85C10102088405A
:1030C000304078B32068006800F0080050B394F8EE
:1030D0005C1010208840A8602068006800F4802000
:1030E00080B12068006800F4002028B9206CC8B1C5
:1030F0002046216C884715E0A06C98B12046A16C51
:1031000088470FE02068006800F4807028B92068C4
:10311000006820F0080021680860206C10B120468B
:10312000216C884794F85C102020884030400028AB
:1031300065D02068006800F0100000285FD094F887
:103140005C1020208840A86094F83500052828D11C
:103150002068006820F01600216808602068406937
:1031600020F0800021684861206C08B9A06C28B16B
:103170002068006820F008002168086094F85C105E
:103180003F208840A860012084F8350000BF00205F
:1031900084F8340000BF206D10B12046216D8847AF
:1031A000F8BD2068006800F4802080B120680068C5
:1031B00000F4002028B9606C10B12046616C88478B
:1031C0001DE0E06BD8B12046E16B884717E020682E
:1031D000006800F4807068B92068006820F0100072
:1031E00021680860012084F8350000BF002084F8C1
:1031F000340000BFE06B10B12046E16B8847606D82
:1032000038B3606D00F00100F0B1052084F835009E
:103210002068006820F001002168086000BF009865
:10322000401C0090B84200D905E02068006800F01A
:1032300001000028F3D100BF012084F8350000BF51
:10324000002084F8340000BFE06C10B12046E16C2F
:10325000884700BFA4E70000AC0400202DE9F0413E
:103260000446002500F094F9074614B90120BDE892
:10327000F081606A00B100BF022084F8350000BF11
:10328000002084F8340000BF2068006820F00100AE
:10329000216808600AE000F07BF9C01B052805D909
:1032A00020206065032084F83500E0E7206800688E
:1032B00000F001000028EED1206805682148054093
:1032C000D4E901010843E1680843216908436169C1
:1032D0000843A1690843E1690843216A084305439B
:1032E000606A042803D1D4E90B0108430543206830
:1032F00005602068456925F00705606A0543606A36
:1033000004280DD1A06A0543E06A48B12046FEF7C3
:1033100027FD28B140206065012084F83500A6E72C
:10332000206845612046FEF701FD064694F85C10D2
:103330003F208840B06000206065012084F835009F
:10334000002094E73F8010F070B5044600F020F9AB
:1033500006462546681C10B104480078054400BFA5
:1033600000F016F9801BA842FAD370BDA804002013
:103370007047000010B5044604480068204020B1A2
:10338000024804602046FFF7F3FF10BD143C0140E3
:10339000F8B502460B460025002400200021D6E0A7
:1033A000012606FA01F51E6806EA0504AC4274D14E
:1033B0001E7906F00306012E04D01E7906F00306DE
:1033C000022E13D190684F000326BE40B0434F0039
:1033D000DE68BE4030439060506801268E40B043A6
:1033E0001E79C6F300168E40304350601E7906F0F9
:1033F0000306032E09D0D0684F000326BE40B04319
:103400004F009E68BE403043D0601E7906F0030630
:10341000022E13D1CF0802F1200656F827004E07DE
:10342000F70E0F26BE40B0434F07FF0E1E69BE4089
:103430003043CF0802F1200646F8270010684F00FD
:103440000326BE40B0431E7906F003064F00BE407F
:10345000304310605E6806F44036002E76D000BF20
:10346000002600963C4E366846F480463A4F3E6051
:103470003E46366806F48046009600BF00BF374ED1
:103480008F0856F827008E07370F0F26BE40B0432F
:10349000334EB24202D1002624E057E0314EB24210
:1034A00001D101261EE0304EB24201D1022619E0C0
:1034B0002E4EB24201D1032614E02D4EB24201D16C
:1034C00004260FE02B4EB24201D105260AE02A4E17
:1034D000B24201D1062605E0284EB24201D10726AC
:1034E00000E008268F073F0FBE4030431B4E8F0879
:1034F00046F82700224E3068A0435E6806F4801626
:1035000006B120431E4E3060361D3068A0435E6811
:1035100006F4001606B12043194E361D3060184ED1
:10352000361F3068A0435E6806F4003606B12043BB
:10353000134E361F3060361F3068A0435E6806F4B5
:10354000803606B120430E4E083E3060491C1029DB
:10355000FFF426AFF8BD00004438024008380140AF
:10356000000002400004024000080240000C02403B
:10357000001002400014024000180240001C0240EB
:10358000083C01400AB1816101E00B04836170478E
:103590000148006870470000A0040020034800684C
:1035A000034909780844014908607047A0040020D5
:1035B000A804002010B50D48006840F400700B49C5
:1035C00008600846006840F48060086008460068AB
:1035D00040F480700860032000F0DCF80F2000F059
:1035E00007F800F05FF8002010BD0000003C02402A
:1035F0002DE9F04188B004460027B84600BF0020FE
:1036000001902448006840F0010022490860084603
:10361000006800F00100019000BF00BF02A903A8EC
:1036200001F07CF8069F1FB901F0A0F8054602E002
:1036300001F09CF845001848B5FBF0F0A0F1010836
:103640004FF080401549086040F2E7311348C160EF
:10365000C0F80480002101618160816101F094FD66
:10366000064696B90D4801F0F5FD06466EB91C20D8
:1036700000F042F8102C07D2002221461C2000F056
:103680004BF80748046000E00126304608B0BDE86A
:10369000F08100004038024040420F00BC1F002073
:1036A000A404002008B500BF002000901148006865
:1036B00040F480400F4908600846006800F48040EC
:1036C000009000BF00BF00BF00200090081F0068EE
:1036D00040F08050091F08600846006800F08050E4
:1036E000009000BF00BF00220F21901E00F014F8D0
:1036F00008BD00004438024001460846002809DBA6
:1037000000F01F0301229A4043099B0003F1E023CC
:10371000C3F8002100BF70472DE9F05F80460D46D9
:103720001646002709F0B8FE074639462A463346B2
:1037300001F00700C0F1070ABAF1040F02D94FF0F7
:10374000040A01E0C0F1070AD14600F1040ABAF107
:10375000070F02D24FF0000A01E0A0F1030AD4469D
:103760004FF0010A0AFA09FAAAF1010A0AEA020A62
:103770000AFA0CFA4FF0010B0BFA0CFBABF1010B40
:103780000BEA030B4AEA0B042146404609F08CFE83
:10379000BDE8F09F00BF00F00702064B19684FF626
:1037A000FF031940044B0B4343EA0221014B19600C
:1037B00000BF70470CED00E00000FA0570470246BC
:1037C0001068416200207047F0B50346154618683E
:1037D000446A21B944EA05401E68B06219E01868DD
:1037E000806A04EB1044002208E0186800F582703B
:1037F00050F8220004EB1044501CC2B2481E904204
:10380000F3D844EA0547186800F582704E1E40F868
:1038100026700020F0BD10B50446D4F8080507F066
:1038200052FF10BD70B504460D4605EBC50304F10B
:103830003C0101EB83010A692946D4F8080507F029
:103840003DFE70BD70B504460D4605EBC50304F59D
:103850001F7101EB83010A692946D4F8080507F0B6
:10386000B1FE70BD10B50446D4F8080507F02EFF70
:1038700010BD2DE9F04104460D4605F0800080287A
:1038800008D105F00F0000EBC00104F13C0000EB93
:10389000810607E005F00F0000EBC00104F51F7082
:1038A00000EB81063146206809F002FA07463846E7
:1038B000BDE8F08170B504460E4606F08000802811
:1038C0000AD106F00F0000EBC00104F13C0000EB50
:1038D00081050120687009E006F00F0000EBC001CF
:1038E00004F51F7000EB81050020687006F00F00E2
:1038F000287000BF94F8BC04012801D1022070BDDB
:10390000012084F8BC0400BF2946206808F0B0FC00
:1039100000BF002084F8BC0400BF00BFEFE770B513
:1039200004460E4606F00F006168884201D9012066
:1039300070BD06F0800080280AD106F00F0000EB71
:10394000C00104F13C0000EB81050120687009E032
:1039500006F00F0000EBC00104F51F7000EB8105BD
:10396000002068700020A87006F00F00287000BFCB
:1039700094F8BC04012801D10220D9E7012084F881
:10398000BC0400BF2946206808F05AFF00BF002091
:1039900084F8BC0400BF00BFCAE7024601F00F0074
:1039A00000EBC00302F51F7000EB8300006A704754
:1039B0002DE9F04705460E4690461F464FF0000998
:1039C00006F0800080280AD106F00F0000EBC0014D
:1039D00005F13C0000EB81040120607009E006F075
:1039E0000F0000EBC00105F51F7000EB8104002003
:1039F000607006F00F002070C4F80C8027716078AA
:103A000008B120782081022F01D10020607100BF11
:103A100095F8BC04012802D10220BDE8F0870120FE
:103A200085F8BC0400BF2146286808F037FB00BFBA
:103A3000002085F8BC0400BF4846EEE72DE9F041C0
:103A400004460E461746984606F00F0000EBC001EC
:103A500004F51F7000EB81052F61C5F81880002068
:103A60002862687006F00F0028702069012800D1D4
:103A70006F6106F00F0028B9227C2946206808F003
:103A8000B9FD04E0227C2946206808F06DFF002083
:103A9000BDE8F08170B504460D4605F00F00616881
:103AA000884201D9012070BD05F0800080280AD12C
:103AB00005F00F0000EBC00104F13C0000EB8106B3
:103AC0000120707007E005EBC50104F51F7000EBE5
:103AD0008106002070700120B07005F00F0030707A
:103AE00000BF94F8BC04012801D10220DBE70120CB
:103AF00084F8BC0400BF3146206808F0E8FE05F0F9
:103B00000F0028B9217C04F2C442206808F060FE4E
:103B100000BF002084F8BC0400BF00BFC3E72DE94C
:103B2000F04104460E461746984606F00F0000EB9B
:103B3000C00104F13C0000EB81052F61C5F818803D
:103B4000002028620120687006F00F0028702069AC
:103B5000012800D16F6106F00F0028B9227C2946A8
:103B6000206808F047FD04E0227C2946206808F020
:103B7000FBFE0020BDE8F0812DE9FE4F0446D4F89D
:103B800000B05E46206809F07AF9002874D12068F8
:103B900009F0B4F908B9BDE8FE8F40F60800805975
:103BA000C0F30D20C4F8FC04206809F0A7F900F068
:103BB0000200022805D12068406900F00200216857
:103BC0004861206809F09AF900F01000102845D1EA
:103BD0002068806920F0100021688861DBF820905F
:103BE00009F00F0000EBC00104F51F7000EB810A23
:103BF000C9F3434002281AD147F6F07009EA0000E1
:103C000030B3C9F30A125846DAF8101009F07BF9FC
:103C1000C9F30A11DAF810000844CAF81000C9F311
:103C20000A11DAF820000844CAF8200010E0C9F3AD
:103C3000434006280CD1082204F2C441584609F03A
:103C400062F9C9F30A11DAF820000844CAF8200022
:103C50002068806940F0100021688861206809F0C0
:103C60004DF900F40020B0F5002F7BD1002520682D
:103C700009F014F9029072E0E1E2029800F001000C
:103C8000002868D0E9B2206809F02BF9804608F0D6
:103C9000010048B1012106F5306000EB451081605C
:103CA0002946204603F08AFD08F00800082809D1BB
:103CB000082106F5306000EB45108160294620465A
:103CC00003F04AFD08F01000102805D1102106F578
:103CD000306000EB4510816008F00200022824D11A
:103CE000DBF8140000F08000802807D140F60400C3
:103CF000805940F4806140F60400815105EBC50114
:103D000004F51F7000EB810A9AF80300012806D120
:103D100000208AF80300E9B2204600F09BFA022155
:103D200006F5306000EB4510816008F02000202887
:103D300005D1202106F5306000EB4510816008F4C4
:103D40000050B0F5005F06D14FF4005106F5306029
:103D500000EB451081606D1C0298400802900298AB
:103D600000288AD1206809F0C9F800F48020B0F555
:103D7000802F7DD1206809F087F8029000259AE015
:103D8000029800F00100002873D0E9B2206809F021
:103D90008FF8804608F00100F0B305F00F01012014
:103DA0008840019040F634008159019821EA0000D2
:103DB00040F634018851012106F5106000EB4510F2
:103DC00081602069012824D105EBC50104F13C0084
:103DD00000EB810005EBC502016904F13C0000EB3A
:103DE0008200C068014405EBC50204F13C0000EB11
:103DF000820001616DB905EBC50104F13C0000EBE7
:103E00008100806928B904F2C4420121206808F0C9
:103E1000DFFCE9B2204600E001E0FFF703FD08F017
:103E20000800082805D1082106F5106000EB4510B0
:103E3000816008F01000102805D1102106F51060EF
:103E400000EB4510816008F04000402805D140217A
:103E500006F5106000EB4510816008F002000228B2
:103E60001DD12946584608F0CBFF05EBC50101E0FE
:103E700025E01CE004F13C0000EB810A9AF8030005
:103E8000012806D100208AF80300E9B2204600F09C
:103E9000D8F9022106F5106000EB4510816008F0AA
:103EA0008000802803D12946204603F029FD6D1C9F
:103EB000029840080290029800287FF461AF2068C1
:103EC00009F01CF800F00040B0F1004F1CD140F6A2
:103ED0000400805920F0010140F60400815194F85B
:103EE000F404012807D1002084F8F40400212046BE
:103EF000FFF764FC02E0204600F0D4FA2068406935
:103F000000F0004021684861206808F0F7FF00F4E5
:103F10000060B0F5006F0ED140F60800805900F047
:103F2000010010B1204600F015FB2068406900F444
:103F3000006021684861206808F0E0FF00F48050CC
:103F4000B0F5805F7ED140F60400805920F0010179
:103F500040F6040081511021206808F051FF00272D
:103F600032E04FF67F3106F5106000EB47108160BC
:103F700006F5106000EB4710006820F4001106F50C
:103F8000106000EB471001604FF67F3106F530609E
:103F900000EB4710816006F5306000EB47100068C9
:103FA00020F4001106F5306000EB4710016006F5C3
:103FB000306000EB4710006840F0006106F53060AB
:103FC00000EB471001607F1C6068B842C9D840F61A
:103FD0001C00805940F0011140F61C008151206BFB
:103FE00070B1D6F8840840F00B01C6F8841840F68A
:103FF0004400805940F00B0140F6440081510FE02D
:1040000040F61400805942F22B01084340F6140197
:104010008851081F805940F00B014FF40160815115
:10402000D6F8000820F4FE60C6F80008217C04F2EF
:10403000C442206808F0CCFB2068406900F480503E
:10404000216800E000E04861206808F057FF00F4B4
:104050000050B0F5005F17D1206808F087F820689D
:1040600008F0FAFEE06000F07BFB0090227B206805
:10407000009908F0CBFF204600F0FCF92068406969
:1040800000F4005021684861206808F037FF00F014
:104090000800082808D1204600F00BFA2068406983
:1040A00000F0080021684861206808F027FF00F050
:1040B0008000802818D1DBF8180020F08000CBF8B1
:1040C000180001250DE005EBC50104F51F7000EB9C
:1040D0008100C078012803D1E9B22046FFF7C9FB6F
:1040E0006D1C6068A842EED8206808F007FF00F455
:1040F0008010B0F5801F2DD1012522E006F510605B
:1041000000EB4510D0F8009005EBC50104F13C0030
:1041100000EB81000079012812D109F00040B0F1D4
:10412000004F0DD1012105EBC50204F13C0000EB6D
:104130008200C170E8B240F080012046FFF799FB91
:104140006D1C6068A842D9D82068406900F48010CE
:1041500021684861206808F0D1FE00F40010B0F535
:10416000001F44D1012538E006F5306000EB451012
:10417000D0F8009005EBC50104F51F7000EB81003D
:104180000079012828D109F00040B0F1004F23D177
:1041900009F4803094F8FC1401F0010188421BD12D
:1041A000012105EBC50204F51F7000EB8200C17010
:1041B000DBF8180040F08000CBF81800DBF81400A2
:1041C00000F0800040B940F60400805940F40071CE
:1041D00040F60400815103E06D1C6068A842C3D81A
:1041E00000BF2068406900F4001021684861206821
:1041F00008F084FE00F08040B0F1804F08D12046E6
:10420000FFF709FB2068406900F0804021684861A1
:10421000206808F073FE00F0040004280FD1206825
:10422000D0F8049009F00400042802D12046FFF7DA
:1042300019FB2068406840EA09002168486000BF17
:10424000A9E470B504460D462946D4F8080507F0E0
:10425000A9FA70BD70B504460D462946D4F8080584
:1042600007F0C4FA70BD70B58AB0044614B90120D5
:104270000AB070BD266894F8BD0428B9002084F8FF
:10428000BC04204600F0A2F8032084F8BD04F06BC3
:1042900000F4807008B900212161206808F0A2F9BB
:1042A000282204F110016846FCF763FE94E80F0031
:1042B00007F070FF20B1022084F8BD040120D7E789
:1042C0000021206808F04FFE002531E0012105EBB8
:1042D000C50204F13C0000EB8200417005EBC50112
:1042E00004F13C0000F8215005EBC50100EB810012
:1042F0000581002105EBC50204F13C0000EB8200C2
:10430000017105EBC50204F13C0000EB8200C160C5
:1043100005EBC50204F13C0000EB8200016105EBF6
:10432000C50204F13C0000EB82008161681CC5B24B
:104330006068A842CAD800252AE0002105EBC50222
:1043400004F51F7000EB8200417005EBC50104F518
:104350001F7000F82150002105EBC50200EB820020
:10436000017105EBC50204F51F7000EB8200C1600E
:1043700005EBC50204F51F7000EB8200016105EB3F
:10438000C50204F51F7000EB82008161681CC5B294
:104390006068A842D1D8282204F110016846FCF7D1
:1043A000E8FD94E80F0008F02DF820B1022084F811
:1043B000BD0401205CE7002084F83800012084F867
:1043C000BD04206808F00CF8002051E710B586B055
:1043D0000446142101A8FCF706FE2068B0F1A04FA6
:1043E00042D100BF002000902048006840F001004A
:1043F0001E4908600846006800F00100009000BFF8
:1044000000BF4FF4C05001900220029000200390A2
:10441000032004900A20059001A91548FEF7B8FF73
:1044200000BF1248001D006840F080000F49091DC0
:10443000086000BF002000900C481430006840F471
:1044400080400A49143108600846006800F4804042
:10445000009000BF00BF00BF002205214320FFF7EE
:104460005BF94320FFF748F906B010BD3038024031
:104470000000024070B504460125E06808B9002537
:1044800006E0E068022801D1012501E0FDF7DBFC30
:104490002946D4F8080507F052FAD4F8080507F0C1
:1044A000F9F970BD10B50446D4F8080507F028FAEC
:1044B00010BD10B50446D4F8080507F02CFA10BD5D
:1044C00070B504460D4600BF94F8BC04012801D124
:1044D000022070BD012084F8BC0400BF84F838506D
:1044E0002946206808F073FD00BF002084F8BC0452
:1044F00000BF00BFEDE710B5044604F2C441D4F894
:10450000080507F033FA10BD70B50446256800BFF2
:1045100094F8BC04012801D1022070BD012084F868
:10452000BC0400BFA06A012806D1A069012803D0FD
:10453000A86B40F48030A863206808F02FFC206846
:1045400007F03CFF00BF002084F8BC0400BF00BFA0
:10455000E3E7000010B50446D4F8080507F063FA55
:104560002068D0F8000E40F001002168C1F8000E6C
:10457000206A28B10348006840F00600014908603D
:1045800010BD000010ED00E07047000070B504465B
:104590000D460CB9012070BD5848006800F00700B6
:1045A000A84209D255490D700846006800F007007E
:1045B000A84201D00120EEE7207800F00200022896
:1045C0001DD1207800F00400042805D14C48006873
:1045D00040F4E0504A490860207800F008000828BC
:1045E00005D14748006840F46040454908604448A8
:1045F000006820F0F000A168084341490860207875
:1046000000F00100A8B36068012807D13C480838D1
:104610000068C0F34040B8B90120BCE760680228D8
:1046200002D06068032807D1354808380068C0F315
:10463000406048B90120AEE7314808380068C0F34F
:10464000400008B90120A6E72D48006820F00300CB
:10465000616808432A490860FEF79AFF064609E0A8
:10466000FEF796FF801B41F28831884202D9032071
:1046700091E707E02248006800F00C006168B0EBA9
:10468000810FEDD11D48006800F00700A84209D94C
:104690001A490D700846006800F00700A84201D0D2
:1046A000012078E7207800F00400042807D114489E
:1046B000006820F4E050E168084311490860207860
:1046C00000F00800082808D10D48006820F4604078
:1046D000216940EAC1000A49086000F067F808490A
:1046E0000968C1F30311074A515CC84006490860D4
:1046F00006480068FEF77CFF00204CE7003C0240C3
:1047000008380240781E0108AC040020A4040020F0
:1047100001200149C8647047000047420F2202602F
:104720000D4A126802F0030242600B4A126802F05E
:10473000F0028260084A126802F4E052C260064A3F
:10474000126802F46042D2080261044A126802F060
:1047500007020A607047000008380240003C02402F
:104760000148006870470000AC04002000B5FFF766
:10477000F7FF04490968C1F38221034A515CC8402C
:1047800000BD000008380240881E010800B5FFF790
:10479000E7FF04490968C1F34231034A515CC8404C
:1047A00000BD000008380240881E01082DE9F047CE
:1047B000002400250026A1462548006800F00C00D2
:1047C00020B1042805D008283AD105E0DFF884900C
:1047D00039E0DFF8849036E01D48001F006800F0E3
:1047E0003F041B48001F006800F4800078B11A489D
:1047F0001749091F0968C1F38811A0FB0170014620
:10480000224600233846FCF7F8FA05460EE0114828
:104810000F49091F0968C1F38811A0FB0170014607
:10482000224600233846FCF7E8FA05460848001FF0
:104830000068C0F30140401C4600B5FBF6F902E0F9
:10484000DFF8109000BF00BF4846BDE8F0870000C9
:10485000083802400024F400001BB70010B50648D9
:10486000006800F08000802805D1FFF78DFE8020D1
:104870000149891C087010BD0C380240F8B5044687
:104880000CB90120F8BD207800F00100002874D098
:10489000F948006800F00C0004280DD0F6480068C4
:1048A00000F00C00082813D1F348001F006800F442
:1048B0008000B0F5800F0BD1EF4808380068C0F3D6
:1048C0004040002859D06068002856D10120D9E71F
:1048D00000BF6068B0F5803F08D1E748083800683D
:1048E00040F48030E449083908601EE06068B0F5A3
:1048F000A02F0DD1E0480838006840F48020DE4940
:10490000083908600846006840F4803008600CE010
:10491000D9480838006820F48030D7490839086041
:104920000846006820F48020086000BF606890B1ED
:10493000FEF72EFE054606E0FEF72AFE401B642821
:1049400001D903209EE7CC4808380068C0F34040F6
:104950000028F1D011E0FEF71BFE054606E0FEF749
:1049600017FE401B642801D903208BE7C248083892
:104970000068C0F340400028F1D1207800F0020028
:1049800002285FD1BC48006800F00C0058B1BA485A
:10499000006800F00C0008281CD1B748001F006810
:1049A00000F48000B0B9B44808380068C0F3400093
:1049B00020B1E068012801D0012063E7AE48083843
:1049C000006820F0F800216940EAC100AA490839CE
:1049D000086037E0E06800B30120A8490860FEF7EE
:1049E000D7FD054606E0FEF7D3FD401B022801D99E
:1049F000032047E7A04808380068C0F340000028BB
:104A0000F1D09D480838006820F0F800216940EA9C
:104A1000C10099490839086014E0002097490860EE
:104A2000FEF7B6FD054606E0FEF7B2FD401B022884
:104A300001D9032026E7904808380068C0F34000F9
:104A40000028F1D1207800F0080008282CD16069F6
:104A5000A8B101208A490860FEF79AFD054606E0E4
:104A6000FEF796FD401B022801D903200AE7824881
:104A70006C300068C0F340000028F1D014E0002042
:104A80007F490860FEF784FD054606E0FEF780FDDD
:104A9000401B022801D90320F4E677486C300068F7
:104AA000C0F340000028F1D1207800F00400042871
:104AB00070D1002770483830006800F0805090B9FD
:104AC00000BF002000906C483830006840F08050F3
:104AD0006949383108600846006800F0805000904D
:104AE00000BF00BF01276748006800F48070B0B9BC
:104AF0006448006840F4807062490860FEF748FD31
:104B0000054606E0FEF744FD401B022801D90320BC
:104B1000B8E65C48006800F480700028F2D000BF5E
:104B2000A068012808D154486830006840F00100AE
:104B30005149683108601DE0A06805280DD14E4834
:104B40006830006840F004004B496831086008464E
:104B5000006840F0010008600CE0474868300068D9
:104B600020F001004449683108600846006820F0E0
:104B70000400086000BFA068A8B1FEF709FD054663
:104B800009E0FEF705FD401B41F28831884202D959
:104B9000032077E626E0384868300068C0F340001C
:104BA0000028EED013E0FEF7F3FC054608E0FEF720
:104BB000EFFC401B41F28831884201D9032061E6B5
:104BC0002D4868300068C0F340000028EFD1012F65
:104BD00007D129483830006820F080502649383104
:104BE000086000BFA069002845D02348006800F095
:104BF0000C0008285DD0A069022845D100201F497B
:104C00000866FEF7C5FC054606E0FEF7C1FC401B42
:104C1000022801D9032035E6174808380068C0F398
:104C200040600028F1D1D4E907010843616A40EAF5
:104C300081110122A06AC2EB500041EA00412C2000
:104C4000005D41EA00600C49091F086001200B4922
:104C50000866FEF79DFC054606E0FEF799FC401B42
:104C6000022801D903200DE6034808380068C0F384
:104C700040600028F1D049E0083802400000474277
:104C8000800E474200700040002021490866FEF770
:104C90007FFC054606E0FEF77BFC401B022801D99D
:104CA0000320EFE51B480068C0F340600028F2D104
:104CB0002CE0A069012800D1E4E51648001D066833
:104CC000A069012820D006F48001E06981421BD14F
:104CD00006F03F01206A814216D147F6C07030408D
:104CE000616AB0EB811F0FD106F440310122A06A46
:104CF000C2EB5000B1EB004F06D106F070612C20E2
:104D0000005DB1EB006F01D00120BBE50020B9E5EB
:104D1000000047420038024010B504460CB901209B
:104D200010BD606A38B96068B0F5827F00D105E0D7
:104D30000021E16102E00021216161610021A162A5
:104D400094F8510028B9002084F85000204600F063
:104D500047F8022084F851002068006820F04000E5
:104D600021680860A08800F48270218901F4044160
:104D70000843A18901F400610843217C01F002018C
:104D80000843217D01F001010843218B01F40071EA
:104D90000843217F01F0380108432021095D01F01B
:104DA00080010843218D01F4005108432168086007
:104DB0000421A06901EA104094F8241001F01001C8
:104DC0000843216848602068C06920F400602168B9
:104DD000C86100206065012084F8510000209FE731
:104DE00010B586B00446142101A8FCF7FCF8294947
:104DF000206888424CD100BF0020009026480068FF
:104E000040F48050244908600846006800F480504F
:104E1000009000BF00BF00BF002000901E48143863
:104E2000006840F002001C49143908600846006818
:104E300000F00200009000BF00BF00BF0020009003
:104E40000846006840F0010008600846006800F06D
:104E50000100009000BF00BF1820019002200290C6
:104E600000200390032004900520059001A90B4821
:104E7000FEF78EFA8020019002200290002003901D
:104E8000032004900520059001A90548FEF780FA4B
:104E900006B010BD0030014044380240000402401A
:104EA000000002402DE9FF5F0446884691461D46FA
:104EB0000E9E012002900020019000BF94F8500047
:104EC000012803D1022004B0BDE8F09F012084F83E
:104ED000500000BFFEF75CFB074694F851B06068D5
:104EE0000390AA46BBF1010F0BD00398B0F5827F67
:104EF00004D1A06810B9BBF1040F02D002200190C8
:104F0000DBE0B8F1000F03D0B9F1000F00D015B904
:104F100001200190D1E094F85100042802D005202E
:104F200084F8510000206065C4F83890E587A587B3
:104F3000C4F83080E586A586206460642068006837
:104F400000F04000402805D02068006840F0400094
:104F500021680860E068B0F5006F4AD1606810B160
:104F6000BAF1010F09D1206B00882168C860206B5D
:104F7000801C2063E08E401EE08633E0206880685D
:104F800000F00200022810D1E08E70B102980128D2
:104F90000BD1206B00882168C860206B801C2063C7
:104FA000E08E401EE086002002902068806800F0BD
:104FB000010068B1E08F58B12068C068A16B08801B
:104FC000A06B801CA063E08F401EE0870120029050
:104FD000FEF7DEFAC01BB04204D3701C10B10320F0
:104FE00001906AE0E08E0028C8D1E08F0028C5D18A
:104FF0004AE0606810B1BAF1010F09D1206B007866
:1050000021680873206B401C2063E08E401EE08600
:1050100034E02068806800F00200022810D1E08EA1
:1050200070B1029801280BD1206B007821680873B9
:10503000206B401C2063E08E401EE0860020029022
:105040002068806800F0010068B1E08F58B12068E6
:10505000C068A16B0870A06B401CA063E08F401E6D
:10506000E08701200290FEF793FAC01BB04201D303
:10507000701C00B916B9032001901EE0E08E0028D4
:10508000C7D1E08F0028C4D13A463146204603F00C
:10509000CBFC20B101200190202060650DE0A068CC
:1050A00050B900BF002000902068C06800902068C0
:1050B0008068009000BF00BF00BF012084F851004D
:1050C00000BF002084F8500000BF0198FBE6704745
:1050D0007047000030B502460B4600BF92F83C0016
:1050E000012801D1022030BD012082F83C0000BF20
:1050F000022082F83D00106844681068816824F03E
:1051000070041868044310684460184D1068A84281
:105110001BD01068B0F1804F17D0154D1068A84211
:1051200013D0144D1068A8420FD0134D1068A84238
:105130000BD0124D1068A84207D0114D1068A8423C
:1051400003D0104D1068A84205D121F080015868A5
:10515000014310688160012082F83D0000BF0020FB
:1051600082F83C0000BF00BFBDE700000000014026
:105170000004004000080040000C00400004014012
:10518000004001400018004010B504460CB9012051
:1051900010BD94F83D0028B9002084F83C0020465A
:1051A00000F026F8022084F83D00211D206804F05C
:1051B000D5FD012084F8460000BF84F83E0001219F
:1051C0003F200155402001554120015500BF00BF3F
:1051D000012084F842004320015544200155452018
:1051E000015500BF012084F83D000020D0E70000F9
:1051F00008B5154A016891420FD100BF0021009106
:105200001249096841F00401104A11601146096809
:1052100001F00401009100BF15E00D4A01689142C0
:1052200011D100BF002100910849091D096841F40E
:105230000031064A121D11601146096801F400315F
:10524000009100BF00BF08BD000800404038024088
:1052500000440140014691F83D00012801D00120A1
:105260007047022081F83D000868C06840F00100E6
:105270000B68D8601A4B086898421BD00868B0F1D8
:10528000804F17D0174B0868984213D0164B086808
:1052900098420FD0154B086898420BD0144B086801
:1052A000984207D0134B0868984203D0124B086805
:1052B00098420CD10868806800F00702062A0CD0DA
:1052C0000868006840F001000B68186005E0086895
:1052D000006840F001000B6818600020C0E7000083
:1052E000000001400004004000080040000C0040A5
:1052F0000004014000400140001800402DE9F04149
:1053000004460D46002700BF94F83C00012802D156
:105310000220BDE8F081012084F83C0000BF02209B
:1053200084F83D002068866826F0770626F47F46DC
:10533000206886602868502833D00CDC202850D0A4
:1053400004DC00284BD0102851D149E0302849D046
:1053500040284CD139E060282DD0702807D0B0F516
:10536000805F03D0B0F5005F41D10DE041E0D5E9A9
:1053700002136A68206804F06EFD2068866846F0B3
:1053800077062068866034E0D5E902136A682068F1
:1053900004F061FD2068806840F4804021688860E6
:1053A00027E0EA686968206804F046FE502120681A
:1053B00004F05CFD1DE0EA686968206804F04FFEB7
:1053C0006021206804F052FD13E0EA6869682068F3
:1053D00004F032FE4021206804F048FD09E000BFDF
:1053E00000BF00BF2968206804F040FD01E00127EC
:1053F00000BF00BF012084F83D0000BF002084F8FA
:105400003C0000BF384684E7704710B5044620686A
:105410000069C0F34000D8B12068C068C0F3400004
:10542000B0B16FF002002168086101202077206888
:10543000806900F0030018B12046FFF7E5FF05E0A2
:10544000204600F007F9204600F0BBF90020207745
:1054500020680069C0F38000D8B12068C068C0F33C
:105460008000B0B16FF0040021680861022020774D
:105470002068806900F4407018B12046FFF7C4FF2F
:1054800005E0204600F0E6F8204600F09AF90020FA
:10549000207720680069C0F3C000D8B12068C068D8
:1054A000C0F3C000B0B16FF00800216808610420AB
:1054B00020772068C06900F0030018B12046FFF78C
:1054C000A3FF05E0204600F0C5F8204600F079F97A
:1054D0000020207720680069C0F30010D8B1206850
:1054E000C068C0F30010B0B16FF01000216808610F
:1054F000082020772068C06900F4407018B1204669
:10550000FFF782FF05E0204600F0A4F8204600F0F7
:1055100058F9002020772068006900F0010058B198
:105520002068C06800F0010030B16FF00100216810
:105530000861204600F0CCF920680069C0F3C01073
:1055400058B12068C068C0F3C01030B16FF080005F
:10555000216808612046FFF7BAFD20680069C0F3A2
:10556000801058B12068C068C0F3801030B16FF06F
:10557000400021680861204600F0B3F92068006906
:10558000C0F3401058B12068C068C0F3401030B17B
:105590006FF02000216808612046FFF799FD10BDDB
:1055A00010B586B00446142101A8FBF71CFD244960
:1055B000206888421FD100BF002000902148006869
:1055C00040F008001F4908600846006800F0080025
:1055D000009000BF00BF4FF4804001900220029075
:1055E00001200390032004900220059001A9164891
:1055F000FDF7CEFE21E01549206888421DD100BF8D
:10560000002000900F48006840F020000D4908601D
:105610000846006800F02000009000BF00BF402056
:1056200001900220029001200390022004900320A8
:10563000059001A90648FDF7ABFE06B010BD0000BD
:105640000008004030380240000C02400044014095
:105650000014024070472DE9F04104460D461646FD
:10566000002700BF94F83C00012802D10220BDE8C9
:10567000F081012084F83C0000BF36B1042E1BD01D
:10568000082E31D00C2E5ED145E02946206804F06A
:10569000F7FB2068806940F0080021688861206875
:1056A000806920F004002168886120688069296988
:1056B00008432168886148E02946206804F018FC06
:1056C0002068806940F400602168886120688069F2
:1056D00020F480602168886120688069296940EA37
:1056E00001202168886130E02946206804F03EFCF2
:1056F0002068C06940F008002168C8612068C0695E
:1057000020F004002168C8612068C0692969084345
:105710002168C86119E02946206804F063FC20680C
:10572000C06940F400602168C8612068C06920F445
:1057300080602168C8612068C069296940EA012049
:105740002168C86101E0012700BF00BF00BF002041
:1057500084F83C0000BF384689E710B504460CB910
:10576000012010BD94F83D0028B9002084F83C00C9
:10577000204600F025F8022084F83D00211D206815
:1057800004F0ECFA012084F8460000BF84F83E00E3
:1057900001213F200155402001554120015500BF06
:1057A00000BF012084F842004320015544200155E8
:1057B0004520015500BF012084F83D000020D0E7BE
:1057C0007047704770B504460D4615B994F83E0011
:1057D0000BE0042D02D13F20005D06E0082D02D130
:1057E0004020005D01E04120005D012801D0012042
:1057F00070BD1DB9022084F83E000EE0042D03D1D7
:1058000002213F20015508E0082D03D1022140204C
:10581000015502E00221412001550122294620685C
:1058200004F008FB23492068884203D022492068FD
:10583000884201D1012000E0002028B12068406C9E
:1058400040F40040216848641A49206888421BD00F
:105850002068B0F1804F17D018492068884213D0D3
:105860001749206888420FD01649206888420BD01B
:1058700011492068884207D013492068884203D024
:105880001249206888420CD12068806800F0070621
:10589000062E0CD02068006840F0010021680860E6
:1058A00005E02068006840F00100216808600020E1
:1058B0009EE7000000000140000401400004004099
:1058C00000080040000C004000400140001800406B
:1058D00010B504462068B0F1804F01D1FDF75EFE9F
:1058E00010BD704770B504460D460F4920688842C8
:1058F00003D12946204607F079FC01202063206867
:10590000C06840F010002168C8602068406940F01D
:10591000400021684861A06B0068006840F0010009
:10592000A16B0968086070BD004800407047000026
:105930002DE9F84F0446206805682068C66820688D
:1059400047694FF00009CA4605F00F09B9F1000F89
:105950000AD105F0200038B106F0200020B1204621
:1059600004F0E6FCBDE8F88FB9F1000F7CD007F039
:10597000010018B906F49070002875D005F00100F8
:1059800030B106F4807018B1206C40F00100206442
:1059900005F0040030B107F0010018B1206C40F0B0
:1059A0000200206405F0020030B107F0010018B1D8
:1059B000206C40F00400206405F0080048B106F0B7
:1059C000200010B907F0010018B1206C40F0080069
:1059D0002064206C002846D005F0200028B106F095
:1059E000200010B1204604F0A3FC20684069C0F3F9
:1059F000801A206C00F0080010B9BAF1000F2DD009
:105A0000204604F04FFC2068406900F04000402828
:105A100020D100BF00BF2168143151E8001F21F0E0
:105A200040002168143141E80002002AF3D100BF90
:105A3000A06B50B17548A16B0865A06BFDF7D9FA52
:105A400088B1A06B016D88470DE02046FFF76EFF1F
:105A500009E009E02046FFF769FF04E02046FFF770
:105A600065FF002020647DE7206B012876D105F0DA
:105A70001000002872D006F010000028FAD000BFF5
:105A80000020009020680068009020684068009026
:105A900000BF00BF2068406900F0400040285ED190
:105AA000A06B006840681FFA80F8B8F1000F54D06E
:105AB000A08D404551DDA4F82E80A06BC069B0F5E3
:105AC000807F43D000BF00BF21680C3151E8001F28
:105AD00021F4807021680C3141E80002002AF3D1E2
